:100000000C9433000C9400000C9400000C9400003D
:100010000C9400000C9400000C9400000C94000060
:100020000C94C7000C94C2000C9400000C940000C7
:100030000C9400000C9400000C9400000C94000040
:100040000C9400000C9400000C9400000C94000030
:100050000C9400003F065B4F666D7D077F6F0A00C2
:10006000680154000000F894EE27ECBBF1E0FBBF00
:10007000EBBFE5BFF8E1F1BDE1BD8DE0A2E0BB273C
:10008000ED938A95E9F780E094E0A0E6ED9301977F
:10009000E9F7EEE5F0E085919591009761F0A59183
:1000A000B59105901590BF01F00105900D92019753
:1000B000E1F7FB01F0CFEFE5EDBFE4E0EEBFC0E616
:1000C000D1E00C94DB00A0916001B0916101149724
:1000D0002CF0E0E0E0936001E0936101E0916001C9
:1000E000A1E00E940A01E095EF70E5BBE09160019C
:1000F000F0916101EC59FE4FE081F0E0E859FE4FCC
:10010000E081E2BBA0E6B1E0ED91FD913196FE9376
:10011000EE9308950E94460120916201309163019F
:10012000A2E6B1E0ED91FD913196FE93EE93A091A0
:100130006201B0916301A031E7E2BE0728F0E0E080
:10014000E0936201E093630100E010E00430E0E03E
:100150001E07A4F4F801EC59FE4FBF01D901EAE0F3
:10016000F0E00E942A01DB01EC93D901EAE0F0E023
:100170000E9425019F010F5F1F4FE8CF0E944B0196
:100180002496089535D0EFEFE2BF9DDF06C030D052
:10019000EEEEF5E8FDBDECBDBDDFE991EFBFF991F5
:1001A000E991B991A9919991899179916991F99080
:1001B000199009901895EFE0E4BBEFEFE1BBEEEF8B
:1001C000E5BBE5E0E3BFEFEFE2BFE0E0EFBDE4E079
:1001D000EEBDEEEEF5E8FDBDECBDE5E0E9BF7894DF
:1001E000E1E0F0E0E0936201F0936301FFCFFFCF25
:1001F0000A921A92FA926A937A938A939A93AA939A
:10020000BA93EA93FA93EFB7EA930895F195E195DB
:10021000F0400895EE230E2EEA2F19F0EE0F0A9407
:10022000E9F708950024112490E1AA0FBB1F001CD8
:10023000111C0E1A1F0A18F40E0E1F1E01C0A16019
:100240009A9599F7FD01D001089512D0EBDF0EF4D5
:10025000DDDF0895E894B7FF04C0A095B09511962E
:100260006894F7FDD3DFDEDFFD010EF4CFDF0895E4
:10027000E894F7FF02C0CADF6894B7FF06C0A095F4
:10028000B095119600F8039400FA08953A932A93D2
:100290001A930A9308953B812A8119810881089550
:00000001FF
