:040000000C942F002D
:100004000C9400000C9400000C9400000C9400006C
:100014000C9400000C9400000C9400000C9400005C
:100024000C945F000C9400000C9400000C940000ED
:100034000C9400000C9400000C9400000C9400003C
:100044000C9400000C9400000C9400000C9400002C
:1000540080C00200600154000000F894EE27ECBB5D
:10006400F1E0FBBFEBBFE5BFF8E1F1BDE1BD8DE021
:10007400A2E0BB27ED938A95E9F780E094E0A0E63F
:10008400ED930197E9F7E6E5F0E085919591009706
:1000940061F0A591B59105901590BF01F00105900F
:1000A4000D920197E1F7FB01F0CFEFE5EDBFE4E03E
:1000B400EEBFC0E6D1E00C94A3000A921A92FA9221
:1000C4006A937A938A939A93AA93BA93EA93FA9344
:1000D400EFB7EA93F20131962F01E8EEF3E0E4156D
:1000E400F505F9F4AA928FD0F50131965F01F30179
:1000F40031963F01E4E1F0E0E615F70529F46624C2
:100104007724E1E0F0E04F016A928A9264D04424BB
:100114005524EBE5F0E0EA15FB0519F4E0E0E3BF54
:10012400E9BFE0E0E2BFE991EFBFF991E991B9914C
:10013400A9919991899179916991F990199009906E
:100144001895E0E0EABBEBBB662477248824992465
:1001540044245524E1E4F0E05F01E1E0E3BFE0E0A2
:10016400E2BFECBFE1E0E9BFE4E1EA9362D0789456
:10017400FFCFFFCFE881E07111F0DC9A01C0DC9879
:10018400E881E07211F0DD9A01C0DD98E881E07445
:1001940011F0DE9A01C0DE98E881E07811F0DF9A70
:1001A40001C0DF9885E08A95F1F7DA9A8DE08A95A7
:1001B400F1F7DA988DE08A95F1F76CC0E881EA935B
:1001C400D9DFE881E295E883E881EA93D3DF85E823
:1001D4008A95F1F75FC0E881F0E0E05AFE4FE081D4
:1001E400A981EA0FEA93EADFD980C88022960895AC
:1001F400E2E052D0ECE0EA93E1DFE1E04DD0E0E070
:10020400CE2EDE2E0895A881AA3021F0E09164015B
:10021400DE1640F0E0E0EA93C394CA92DCDFA881E2
:10022400AA30C1F1D394D89AE881EA93C7DFD89869
:1002340031C0D49AD59AD69AD79AD29AD09AD19ACA
:10024400DA98D898D998E881E0936401E058E0936B
:100254006201E881E054E0936301E4E1F0E0FA93A1
:10026400EA930E945E0120D01FD01ED0E0E2EA9300
:1002740081DF88EC90E00197F1F7E8E2EA939EDFF2
:10028400E4E0EA939BDFE5E8EA9398DFE6E0EA93AB
:1002940095DFAEDF21960895EA9390DFE3E0F0E086
:1002A400FA93EA930C945E01E0E3EA9363DF88EC4B
:1002B40090E00197F1F70895E991F991309639F0BA
:1002C40080ED97E00197F1F7A8953197C9F7089564
:00000001FF
