:0C0000000C9435000C9400000C940000DF
:10000C000C9400000C9400000C9400000C94000064
:10001C000C9400000C9400000C9400000C94000054
:10002C000C9400000C9400000C9400000C94000044
:10003C000C9400000C9400000C9400000C94000034
:10004C000C9400000C94000048656C6C6F20776F6A
:10005C00726C640080C00200600160000000F894C3
:10006C00EE27ECBBF1E0FBBFEBBFE5BFF8E1F1BD68
:10007C00E1BD8DE0A2E0BB27ED938A95E9F780E026
:10008C0094E0A0E6ED930197E9F7E2E6F0E08591C4
:10009C009591009761F0A591B59105901590BF01D0
:1000AC00F00105900D920197E1F7FB01F0CFEFE520
:1000BC00EDBFE4E0EEBFC0E6D1E00C946500E0E0FB
:1000CC00EBBBEABBE8BBE7BBE5BBE4BBE2BBE1BB1C
:1000DC00E3BFE2BFECBFEFBDEEBDEDBDECBDE7BDD8
:1000EC00E6BDEBBDEABDE9BDE8BDE2BDE5BDE4BDE5
:1000FC00E3BDE5BFE4BFE9BFEAB9E0E8E8B9E0E099
:10010C00E0BFE6B9EDB9E6BFE0E1EA937BD0E0E011
:10011C00EA93E1E0EA9338D0E4E5F0E0FA93EA936D
:10012C0060D0FFCFFFCFE881E07111F0DC9A01C005
:10013C00DC98E881E07211F0DD9A01C0DD98E8816D
:10014C00E07411F0DE9A01C0DE98E881E07811F0DD
:10015C00DF9A01C0DF9885E08A95F1F7DA9A8DE095
:10016C008A95F1F7DA988DE08A95F1F77BC0E881F2
:10017C00EA93D9DFE881E295E883E881EA93D3DF5B
:10018C0085E88A95F1F76EC0E881F0E0E05AFE4F01
:10019C00E081A981EA0FEA93EADF59804880229630
:1001AC000895E2E061D0ECE0EA93E1DFE1E05CD0BD
:1001BC00E0E04E2E5E2E0895A881AA3011F057145F
:1001CC0048F0E0E0EA9343944A92DEDFA881AA303B
:1001DC0009F448C05394D89AE881EA93C8DFD898B8
:1001EC0041C01A93E981FA813196E983FA833197F8
:1001FC00E4911E2FE03019F01A93DEDFF3CF188153
:10020C0023960895D49AD59AD69AD79AD29AD09AF8
:10021C00D19ADA98D898D9987880E881E058E09308
:10022C006201E881E054E0936301E4E1F0E0FA93C9
:10023C00EA930E944A0120D01FD01ED0E0E2EA933C
:10024C0072DF88EC90E00197F1F7E8E2EA938FDF38
:10025C00E4E0EA938CDFE5E8EA9389DFE6E0EA93F1
:10026C0086DF9FDF21960895EA9381DFE3E0F0E0DB
:10027C00FA93EA930C944A01E0E3EA9354DF88EC96
:10028C0090E00197F1F70895E991F991309639F0E2
:10029C0080ED97E00197F1F7A8953197C9F708958C
:00000001FF
