:100000000C9431000C9400000C9400000C9400003F
:100010000C9400000C9400000C9400000C94000060
:100020000C9400000C9400000C9400000C94000050
:100030000C9400000C9400000C9400000C94000040
:100040000C9400000C9400000C9400000C94000030
:100050000C9400000800000000000600040054009A
:100060000000F894EE27ECBBF1E0FBBFEBBFE5BF6F
:10007000F8E1F1BDE1BD8DE0A2E0BB27ED938A95EB
:10008000E9F780E094E0A0E6ED930197E9F7EAE56F
:10009000F0E085919591009761F0A591B59105905B
:1000A0001590BF01F00105900D920197E1F7FB015A
:1000B000F0CFEFE5EDBFE4E0EEBFC0E6D1E00C9499
:1000C0006100EFEFE7BBE0E0EABBC89935C0E4E6CA
:1000D000F0E0FA93EA930E949E0088249924F201AA
:1000E000EE0FFF1F8E169F0638F5F201D4010E9415
:1000F000C5003F01E8E0F0E08E169F0628F4E62DEB
:10010000A1E00E94AA00E8BBE8E0F0E08E169F069E
:1001100048F0D3011296F201EA1BFB0BA1E00E940A
:10012000AA00E8BBE8EEF3E0FA93EA930E949E008F
:10013000F40131964F01D3CFC8CFFFCFE991F991A8
:10014000309639F080ED97E00197F1F7A895319757
:10015000C9F70895EE230E2EEA2F19F0EE0F0A9438
:10016000E9F708950024112490E1AA0FBB1F001C99
:10017000111C0E1A1F0A18F40E0E1F1E01C0A160DA
:100180009A9599F7FD01D0010895ECDFFD010895DE
:00000001FF
