:100000000C942A000C9400000C9400000C94000046
:100010000C9400000C9400000C9400000C94000060
:100020000C9400000C9448000C9400000C94000008
:100030000C9400000C9400000C9400000C94000040
:100040000C9400000C9400000C9400000C94000030
:100050000C940000F894EE27ECBBF1E0FBBFEBBF83
:10006000E5BFF8E1F1BDE1BD8DE0A2E0BB27ED9376
:100070008A95E9F780E094E0A0E6ED930197E9F72F
:10008000EFE5EDBFE4E0EEBFC0E6D1E00C94520036
:10009000EA93EFB7EA93E6E1E2BF5394E991EFBF49
:1000A000E9911895EFEFEABBE5E0E3BFE6E1E2BFD7
:1000B000E0E0ECBFE1E0E9BF7894E9E15E1630F002
:1000C000D89B02C0D89801C0D89A5524F6CFFFCF4C
:00000001FF
