:0C0000000C943D000C9400000C940000D7
:10000C000C9400000C9400000C9400000C94000064
:10001C000C9400000C9400000C946D000C940000E7
:10002C000C9400000C9400000C9400000C94000044
:10003C000C9400000C9400000C9400000C94000034
:10004C000C9400000C940000000009000A0006004B
:10005C000500000000003200010001000200540005
:10006C00070060015600080004005E000000F894D0
:10007C00EE27ECBBF1E0FBBFEBBFE5BFF8E1F1BD58
:10008C00E1BD8DE0A2E0BB27ED938A95E9F780E016
:10009C0094E0A0E6ED930197E9F7E6E6F0E08591B0
:1000AC009591009761F0A591B59105901590BF01C0
:1000BC00F00105900D920197E1F7FB01F0CFEFE510
:1000CC00EDBFE4E0EEBFC0E6D1E00C94D700AA93FC
:1000DC00BA93EA93FA93EFB7EA93ECE0E2BFA091FC
:1000EC006E01B0916F01119711F00C94D000E0915A
:1000FC006801F0916901CE16DF0614F40C94CD0062
:10010C00F201A0E6B1E0EE0FFF1FAE0FBF1FEC91A6
:10011C00EBBBE3E0F0E04E165F0624F4F2013196FF
:10012C002F0102C044245524A0917101AA23BAF4D2
:10013C00E0916C01F0916D01A0916801B0916901A1
:10014C00EA17FB0744F4A8E6B1E0ED91FD91319775
:10015C00FE93EE9303C0E1E0F0E056D016C059D008
:10016C00A0916801B0916901AE17BF0744F4A8E6ED
:10017C00B1E0ED91FD913196FE93EE9306C04ED019
:10018C00E0E0E0936E01E0936F01CC24DD24F601F6
:10019C0031966F01E991EFBFF991E991B991A9916C
:1001AC001895EFEFEABBE0E0EBBBE4BBE3BBE093FD
:1001BC007201E093730135D031D0EEE5F1E0E093BC
:1001CC006A01F0936B01E2EAFEEFE0936C01F093AD
:1001DC006D012ED0E1E0E3BFEFEFE2BFE0E0ECBF5A
:1001EC00E1E0E9BF7894A0E09A99A1E0A03031F465
:1001FC00A0916E01B0916F01109709F003C018D057
:10020C000DD00FD0F0CFFFCFE0937001F0937101C0
:10021C000895E0916A01F0916B010895EFEFFFEF03
:10022C00F3CFE1E0F0E0E0936E01F0936F010895FD
:10023C00F0DFE0936801F0936901CC24DD2408958C
:00000001FF
