:0A0000000C943B000C9400000C94DB
:10000A0000000C9400000C9400000C9400000C9466
:10001A0000000C9400000C9400000C946B000C94EB
:10002A0000000C9400000C9400000C9400000C9446
:10003A0000000C9400000C9400000C9400000C9436
:10004A0000000C9400000C940000000009000A0053
:10005A00060005000000000001000200540007002D
:10006A0060015600040004005E000000F894EE27C8
:10007A00ECBBF1E0FBBFEBBFE5BFF8E1F1BDE1BDD1
:10008A008DE0A2E0BB27ED938A95E9F780E094E042
:10009A00A0E6ED930197E9F7E2E6F0E08591959104
:1000AA00009761F0A591B59105901590BF01F001F7
:1000BA0005900D920197E1F7FB01F0CFEFE5EDBF57
:1000CA00E4E0EEBFC0E6D1E00C94B200AA93BA9382
:1000DA00EA93FA93EFB7EA93F30131963F01E4E129
:1000EA00F0E0E615F70581F5E4E0F0E04E165F066C
:1000FA002CF4A0E020FCA1E0A03009F016C0F20127
:10010A00A0E6B1E0EE0FFF1FAE0FBF1FEC91EBBBF5
:10011A00F20131962F01689420F8E4E0F0E0E4154A
:10012A00F50511F4442455240DC020FE0BC0E0E06F
:10013A00EBBBE89420F8E4E0F0E0E415F50511F4EF
:10014A004424552466247724E6E0E2BFE991EFBF10
:10015A00F991E991B991A9911895EFEFEABBE0E01D
:10016A00EBBBE4BBE3BBE1E0E3BFE6E0E2BFE0E018
:10017A00ECBFE1E0E9BF9A9901C07894FCCFFFCFC8
:00000001FF
