:080000000C9454000C94000064
:100008000C9400000C9400000C9400000C949A00CE
:100018000C9400000C9400000C9484000C940000D4
:100028000C9400000C9400000C9400000C94000048
:100038000C9400000C9400000C9400000C94000038
:100048000C9400000C9400000C940000FFFF506515
:1000580072696F643A2000206D7300467265713AC8
:10006800200020487A0080C001002D4E414E0049F2
:100078004E46000002007801540009006001560055
:10008800040069015F0007006D016300040074014A
:100098006A0002007C016E0001008001700000000F
:1000A800F894EE27ECBBF1E0FBBFEBBFE5BFF8E14E
:1000B800F1BDE1BD8DE0A2E0BB27ED938A95E9F79C
:1000C80080E094E0A0E6ED930197E9F7ECE7F0E033
:1000D80085919591009761F0A591B591059015903E
:1000E800BF01F00105900D920197E1F7FB01F0CFF8
:1000F800EFE5EDBFE4E0EEBFC0E6D1E00C942C01E3
:10010800AA93BA93EA93FA93EFB7EA930E946E031D
:10011800AAE7B1E0ED91FD913196FE93EE93E99156
:10012800EFBFF991E991B991A99118950A921A929C
:10013800FA926A937A938A939A93AA93BA93EA93D0
:10014800FA93EFB7EA9368971A930A93E7B5FE2FE5
:10015800E0E0DF01E6B5F0E0EA0FFB1F8F01F801F0
:10016800662777270E943904DF01CB01E0E0F8EF2A
:1001780069EF75E40E9411050E940004DF01CB01BC
:10018800E0917A01F0917B01662777270E94760536
:100198000E947303E0E0E0937A01E0937B010E9400
:1001A8006E03EA81FB81FA93EA93FE017296FA9351
:1001B800EA930E942C020E9478030E943704DF0110
:1001C800CB01E0E0F0E06AE774E40E941105A0E0EA
:1001D800B0E080E89FE30E9411050E949205E3E0E9
:1001E800EA93FE013B96FA93EA930E9458020E9412
:1001F800AA01E0E6F1E00E947D03FE0170960E94EC
:100208007D03E9E6F1E00E947D03E0E0EA93E1E0A6
:10021800EA930E949A01EDE6F1E00E947D03FE0157
:1002280036960E947D03E4E7F1E00E947D03198180
:1002380008816A96E991EFBFF991E991B991A9917D
:100248009991899179916991F990199009901895E6
:10025800EFEFEABBE0EFE4BBAF98E0E0EFBDE1E829
:10026800EEBD0E946E03E0E0E7BDE6BDE5E2E9BF52
:10027800E0E1EA930E94F8017894989B0DC0E9B7F1
:10028800E462E9BFE9B7EE7FE9BFEFEFFFEFE09384
:100298007801F093790109C0E9B7EF7DE9BFE9B7C3
:1002A800EB7FE9BFE9B7E160E9BFE7CFFFCFFFE048
:1002B800FA95F1F70895AAB3AF70AABBD99AD8985E
:1002C800F6DFDA9AF4DFA9B3DA98F1DFDA9AEFDF2A
:1002D800DA98A7FDF5CF0895A07FAB2BABBBDA9AD0
:1002E8000E945B01DA980E945B010895D998AAB32D
:1002F800A76FAABBBBB3BF70A881EEDFA881A29588
:10030800EBDFD99A0C942A02DA9A0E945B01E9B3CE
:10031800DA980E945B01E07F08950E945B01F4DF98
:10032800AE2FF2DFD998E295EA2B08950E945F017B
:10033800E881F0E0E458FE4FE081A981EA0FEA93F2
:100348000E947A0159804880229608950E945F0190
:10035800E2E0EA930E947A010E945F01ECE0EA93EE
:100368000E947A010E945F01E1E0EA930E947A010B
:10037800E0E04E2E5E2E0895EF93FF93A8816894D7
:10038800AA3019F0E894571430F04394E0E0EA9367
:100398004A92CCDF36F053948EDFD89AA881AA937C
:1003A800A5DFFF91EF910C942A021A93A981BA81D3
:1003B800ED91A983BA831E2FE03019F01A93DCDF80
:1003C800F5CF188123960895AA27BB271197F1F72F
:1003D8000895D998AAB3A76FAABBBBB3BF70A88169
:1003E8000E947001D99A32C0DA98D8987880E8814A
:1003F800E058E0937E01E881E054E0937F010E9499
:1004080081030E9481030E948103DEDFE0E2EA9318
:10041800E0DFDADFE8E20E948703E4E00E94870376
:10042800E5E80E948703AAB3AF70AABBD99A0E94D5
:100438009101E53011F0E0E009C00E945F01E6E0BB
:10044800EA930E947A010E94AA01E1E021960895A8
:10045800A991B991E991F99130962AF4E095F0952E
:1004680031966DE26D93E89480E197E20DD088EEC5
:1004780093E00AD084E6992707D08AE005D06E2F4A
:1004880010D066276C9308956627E817F90720F0BF
:100498006395E81BF90BC9F7662311F416F0089564
:1004A8006894605D6D9308952497E0E0E883E9839C
:1004B800EA83EFE3EB831A930A93EB85FC85EF3F1E
:1004C800AFEFFA0739F40E948C03E2E7F0E00E94EC
:1004D8009103ABC0EF3FAFE7FA0739F40E948C03F2
:1004E800E3E7F0E00E949103A0C0AC85AA2362F480
:1004F800E985FA856B857C850E94CD030E9495036A
:100508000E949A03EDE2EC93A885A73010F0E6E08C
:10051800E8871885E12F1150E03039F00E94A103D7
:100528000E94A6030E947303F5CF0E94AD030E94A8
:1005380073040E94950310E0E0E0F0E060E87FE3D8
:100548000E9473030E94AD030E94560588F00E9422
:10055800A1030E94B3030E9473031F5F173238F090
:100568000E948C03E7E7F0E00E9491035EC0EACFA7
:10057800103029F40E949A03E0E3EC932CC0E12F99
:100588001150E03041F10E94A1030E94A603A0E0AF
:10059800B0E080E09FE30E9473040E9492050E94ED
:1005A8004C030E9473030E94AD030E9411050E9430
:1005B80000040E2F0E949A030E94BA030E94A1030E
:1005C8000E9483050E9439040E94C3040E94C0034C
:1005D8000E94C503D4CFE885E03019F10E949A0340
:1005E800EEE2EC93E885E150E887EF5FD1F00E94F6
:1005F800C0030E94B3030E949503E985FA856B85C1
:100608007C850E9400040E2F0E949A030E94BA0360
:100618000E94C0030E9483050E9439040E94C503FA
:10062800E1CFAE81BF81E0E0EC93198108812D967E
:1006380008957B816A81F981E88177FB770F67FDEF
:100648007160972F9E5781F078F0983190F4AA271F
:10065800BB27882708948795B795A7959A95D1F7CA
:10066800EA23FB23682305C0E8947727EE27FF27B2
:1006780066276F77769508F4606877F9A991B9913C
:1006880089919991EA17FB076807790797FB0895FD
:100698000E94CA030E9492050E941D030E948D05B4
:1006A80019F40E94CA0309C0E6F70E94CA03A0E031
:1006B800B0E080E89FE30E946C0424960895E991D5
:1006C800F991A991B991CD0105900D920020E1F71A
:1006D800FC010895E0ECF0EEFDBDECBD0895EA8361
:1006E800FB836C837D830895EA81FB816C817D8126
:1006F8000895FA93EA930C94D9010E94E801E0E383
:10070800EA930C94ED01EA930E947A010C94E801B3
:10071800EE81FF81FA93EA930895FA93EA930C9491
:100728006303E987FA876B877C870895AE81BF8169
:100738001196AE83BF8311970895AA81BB818C81DE
:100748009D810895EDECFCEC6CEC7DE30E94C30404
:100758000895CADFA985BA858B859C850895E0E050
:10076800F0E060E271E40E94C3040895E02FE05DC8
:10077800EC93E02FF0E00895A985BA858B859C85D8
:1007880008950E9497050E946C04CBCF0E948805AB
:10079800089530976040704009F0705808955523C7
:1007A80042F4503811F4E0FF04C03196691F791FF4
:1007B8006BF050E8572711F45F93CFC05F3F31F0DB
:1007C800660F000C57956795752F08955F93002065
:1007D8000AF0CFC0C8C050E8192E1522880F991FFB
:1007E8009527550F879550E8072E0522660F771F26
:1007F8007527550F67950895689401C0E8945F932D
:10080800F2DF703818F07F3F08F4A7C056E1571B95
:10081800AAF4519558300EF4593030F0EFEFFFEF4D
:100828006FEF7FE777F91AC077275523B9F0EE0FF6
:10083800FF1F661F771F5A95D1F710C077275830CA
:1008480028F0EF2FF62F672F5850F9CF552331F0A6
:1008580076956795F795E7955A95D1F700200AF4AC
:1008680046D15F910895689401C0E894309760403C
:100878007040B1F0002426F0772312F4009437D1A9
:10088800172E7EE1112032F07A95EE0FFF1F661FBA
:10089800111CF9CFEF2FF62F612D5F938ADF5F913F
:1008A80008954F93AF01FD01DA01AB01BC01CA0104
:1008B800402D012C142E4F910895EA0FFB1F681F3D
:1008C8000895E095F0956095EF5FFF4F6F4F08959D
:1008D8005F9381DF903871F150E8152604C05F936B
:1008E8007ADF903839F1703821F1572F591B2BF1E5
:1008F80012F4D7DFFACF583118F0AA27BB27882778
:10090800583028F0AB2FB82F88275850F9CF5523E7
:1009180029F08695B795A7955A95D9F7502D512561
:1009280072F0CBDF38F46795F795E795739513F474
:1009380020C0B7DF3EDF5F910895D8F7FBCFEA1BF1
:10094800FB0B680B51F010F40094BBDF662392F3A5
:10095800EE0FFF1F661F7A95CBF7EE27FF27662756
:1009680077275F910895EFEFFFEF6FE77FEF5F91D4
:100978000895EFEFFFEF6FE77FE75F9108955F93CB
:100988002ADF703851F3903841F301240894791F15
:1009980023F41CF300203AF3ECCF0F921F932F930C
:1009A8003F934F93112722279927689FA0018F9F74
:1009B800302D410D591F6B9F300D411D591F8E9FC2
:1009C80027D0BF9F25D06A9F23D0BE9F1DD0AF9F41
:1009D8001BD0AE9F110D291F391F491F591FE32F27
:1009E800F42F652F522F4F913F912F911F910F9008
:1009F80066232AF0550FEE1FFF1F661F02C073956E
:100A08004BF2CDDE5F910895100D211D391F02C0F4
:100A1800200D311D491F591F08955F93DCDE703882
:100A280021F411200AF49FCFA4CF903809F495CF70
:100A380001240894970B1BF4D4F30020F3CF792FEB
:100A48001F932F933F934F93112411272227332766
:100A58004427552790E2AE17BF078607410730F0B5
:100A6800AE1BBF0B860B410B089401C08894551F21
:100A7800221F331F111CAA1FBB1F881F441F9A95D2
:100A880051F7F901612D4F913F912F911F916623E5
:100A980032F0550FEE1FFF1F661F7A9543F27FDE77
:100AA8005F91089599239AF0772342F0971748F0B9
:100AB80029F4AE17BF07860720F031F09894889480
:100AC800089598940894089518948894089577231D
:100AD800C2F7971798F3A9F7EA17FB07680788F38F
:100AE80099F3ECCFEA0FFB1F681F791F0895F09563
:100AF80060957095E195FF4F6F4F7F4F08956F2F69
:100B0800660F660B762F0895E881F9816A817B81EB
:100B18000895E883F9836A837B8308957A936A93B7
:100B2800FA93EA930895182E862F612D192E972F80
:100B3800712D1B2EBF2FF12D1A2EAE2FE12D0895EA
:00000001FF
